{
  "contractName": "BasicItemRegistry",
  "abi": [
    {
      "constant": true,
      "inputs": [
        {
          "name": "",
          "type": "uint256"
        }
      ],
      "name": "Items",
      "outputs": [
        {
          "name": "ItemContractAddress",
          "type": "address"
        },
        {
          "name": "ItemId",
          "type": "string"
        },
        {
          "name": "Index",
          "type": "uint256"
        }
      ],
      "payable": false,
      "stateMutability": "view",
      "type": "function"
    },
    {
      "constant": true,
      "inputs": [],
      "name": "Name",
      "outputs": [
        {
          "name": "",
          "type": "string"
        }
      ],
      "payable": false,
      "stateMutability": "view",
      "type": "function"
    },
    {
      "constant": true,
      "inputs": [],
      "name": "Description",
      "outputs": [
        {
          "name": "",
          "type": "string"
        }
      ],
      "payable": false,
      "stateMutability": "view",
      "type": "function"
    },
    {
      "constant": true,
      "inputs": [],
      "name": "State",
      "outputs": [
        {
          "name": "",
          "type": "uint8"
        }
      ],
      "payable": false,
      "stateMutability": "view",
      "type": "function"
    },
    {
      "inputs": [
        {
          "name": "name",
          "type": "string"
        },
        {
          "name": "description",
          "type": "string"
        }
      ],
      "payable": false,
      "stateMutability": "nonpayable",
      "type": "constructor"
    },
    {
      "anonymous": false,
      "inputs": [
        {
          "indexed": true,
          "name": "ItemContractAddress",
          "type": "address"
        },
        {
          "indexed": false,
          "name": "index",
          "type": "uint256"
        },
        {
          "indexed": false,
          "name": "Item",
          "type": "bytes32"
        }
      ],
      "name": "LogNewItem",
      "type": "event"
    },
    {
      "anonymous": false,
      "inputs": [
        {
          "indexed": true,
          "name": "ItemContractAddress",
          "type": "address"
        },
        {
          "indexed": false,
          "name": "index",
          "type": "uint256"
        },
        {
          "indexed": false,
          "name": "ItemId",
          "type": "bytes32"
        }
      ],
      "name": "LogUpdateItem",
      "type": "event"
    },
    {
      "anonymous": false,
      "inputs": [
        {
          "indexed": false,
          "name": "applicationName",
          "type": "string"
        },
        {
          "indexed": false,
          "name": "workflowName",
          "type": "string"
        },
        {
          "indexed": false,
          "name": "originatingAddress",
          "type": "address"
        }
      ],
      "name": "WorkbenchContractCreated",
      "type": "event"
    },
    {
      "anonymous": false,
      "inputs": [
        {
          "indexed": false,
          "name": "applicationName",
          "type": "string"
        },
        {
          "indexed": false,
          "name": "workflowName",
          "type": "string"
        },
        {
          "indexed": false,
          "name": "action",
          "type": "string"
        },
        {
          "indexed": false,
          "name": "originatingAddress",
          "type": "address"
        }
      ],
      "name": "WorkbenchContractUpdated",
      "type": "event"
    },
    {
      "constant": false,
      "inputs": [],
      "name": "OpenRegistry",
      "outputs": [],
      "payable": false,
      "stateMutability": "nonpayable",
      "type": "function"
    },
    {
      "constant": false,
      "inputs": [],
      "name": "CloseRegistry",
      "outputs": [],
      "payable": false,
      "stateMutability": "nonpayable",
      "type": "function"
    },
    {
      "constant": true,
      "inputs": [
        {
          "name": "ItemContractAddress",
          "type": "address"
        }
      ],
      "name": "IsRegisteredItemContractAddress",
      "outputs": [
        {
          "name": "isRegistered",
          "type": "bool"
        }
      ],
      "payable": false,
      "stateMutability": "view",
      "type": "function"
    },
    {
      "constant": true,
      "inputs": [
        {
          "name": "ItemId",
          "type": "string"
        }
      ],
      "name": "IsRegisteredItemId",
      "outputs": [
        {
          "name": "isRegistered",
          "type": "bool"
        }
      ],
      "payable": false,
      "stateMutability": "view",
      "type": "function"
    },
    {
      "constant": false,
      "inputs": [
        {
          "name": "ItemContractAddress",
          "type": "address"
        },
        {
          "name": "ItemId",
          "type": "string"
        }
      ],
      "name": "RegisterItem",
      "outputs": [
        {
          "name": "index",
          "type": "uint256"
        }
      ],
      "payable": false,
      "stateMutability": "nonpayable",
      "type": "function"
    },
    {
      "constant": true,
      "inputs": [
        {
          "name": "ItemContractAddress",
          "type": "address"
        }
      ],
      "name": "GetItemByAddress",
      "outputs": [
        {
          "name": "ItemId",
          "type": "string"
        }
      ],
      "payable": false,
      "stateMutability": "view",
      "type": "function"
    },
    {
      "constant": true,
      "inputs": [
        {
          "name": "ItemId",
          "type": "string"
        }
      ],
      "name": "GetItemByItemId",
      "outputs": [
        {
          "name": "ItemContractAddress",
          "type": "address"
        }
      ],
      "payable": false,
      "stateMutability": "view",
      "type": "function"
    },
    {
      "constant": true,
      "inputs": [],
      "name": "GetNumberOfRegisteredItems",
      "outputs": [
        {
          "name": "count",
          "type": "uint256"
        }
      ],
      "payable": false,
      "stateMutability": "view",
      "type": "function"
    },
    {
      "constant": true,
      "inputs": [
        {
          "name": "index",
          "type": "uint256"
        }
      ],
      "name": "GetItemAtIndex",
      "outputs": [
        {
          "name": "ItemContractAddress",
          "type": "address"
        }
      ],
      "payable": false,
      "stateMutability": "view",
      "type": "function"
    }
  ],
  "bytecode": "0x606060405234156200001057600080fd5b60405162001a7738038062001a77833981016040528080518201919060200180518201919050506040805190810160405280601181526020017f42617369634974656d52656769737472790000000000000000000000000000008152506040805190810160405280600c81526020017f4974656d526567697374727900000000000000000000000000000000000000008152508160009080519060200190620000bb929190620002d7565b508060019080519060200190620000d4929190620002d7565b5050508160069080519060200190620000ef929190620002d7565b50806007908051906020019062000108929190620002d7565b506000600260006101000a81548160ff021916908360028111156200012957fe5b02179055506200014c62000154640100000000026200153a176401000000009004565b505062000386565b7f5164ff06e10737dceb282871701b28082988339e79ba9d49c6c9b0e00312982b60006001336040518080602001806020018473ffffffffffffffffffffffffffffffffffffffff1673ffffffffffffffffffffffffffffffffffffffff1681526020018381038352868181546001816001161561010002031660029004815260200191508054600181600116156101000203166002900480156200023d5780601f1062000211576101008083540402835291602001916200023d565b820191906000526020600020905b8154815290600101906020018083116200021f57829003601f168201915b5050838103825285818154600181600116156101000203166002900481526020019150805460018160011615610100020316600290048015620002c45780601f106200029857610100808354040283529160200191620002c4565b820191906000526020600020905b815481529060010190602001808311620002a657829003601f168201915b50509550505050505060405180910390a1565b828054600181600116156101000203166002900490600052602060002090601f016020900481019282601f106200031a57805160ff19168380011785556200034b565b828001600101855582156200034b579182015b828111156200034a5782518255916020019190600101906200032d565b5b5090506200035a91906200035e565b5090565b6200038391905b808211156200037f57600081600090555060010162000365565b5090565b90565b6116e180620003966000396000f3006060604052600436106100c5576000357c0100000000000000000000000000000000000000000000000000000000900463ffffffff16806307a5d90c146100ca5780630a82ac8e1461017c57806311061cc51461019157806317b47cc41461022e5780635451d80e146103215780636e0cff64146103845780638052474d146103f95780638191745f146104875780638220dd2114610515578063847fba5b1461052a578063f1b6dccd1461057b578063f349bf77146105b2578063f3978f6a146105db575b600080fd5b34156100d557600080fd5b610101600480803573ffffffffffffffffffffffffffffffffffffffff1690602001909190505061066b565b6040518080602001828103825283818151815260200191508051906020019080838360005b83811015610141578082015181840152602081019050610126565b50505050905090810190601f16801561016e5780820380516001836020036101000a031916815260200191505b509250505060405180910390f35b341561018757600080fd5b61018f610769565b005b341561019c57600080fd5b6101ec600480803590602001908201803590602001908080601f016020809104026020016040519081016040528093929190818152602001838380828437820191505050505050919050506107cd565b604051808273ffffffffffffffffffffffffffffffffffffffff1673ffffffffffffffffffffffffffffffffffffffff16815260200191505060405180910390f35b341561023957600080fd5b61024f6004808035906020019091905050610879565b604051808473ffffffffffffffffffffffffffffffffffffffff1673ffffffffffffffffffffffffffffffffffffffff168152602001806020018381526020018281038252848181546001816001161561010002031660029004815260200191508054600181600116156101000203166002900480156103105780601f106102e557610100808354040283529160200191610310565b820191906000526020600020905b8154815290600101906020018083116102f357829003601f168201915b505094505050505060405180910390f35b341561032c57600080fd5b61034260048080359060200190919050506108d1565b604051808273ffffffffffffffffffffffffffffffffffffffff1673ffffffffffffffffffffffffffffffffffffffff16815260200191505060405180910390f35b341561038f57600080fd5b6103df600480803590602001908201803590602001908080601f01602080910402602001604051908101604052809392919081815260200183838082843782019150505050505091905050610915565b604051808215151515815260200191505060405180910390f35b341561040457600080fd5b61040c610a6c565b6040518080602001828103825283818151815260200191508051906020019080838360005b8381101561044c578082015181840152602081019050610431565b50505050905090810190601f1680156104795780820380516001836020036101000a031916815260200191505b509250505060405180910390f35b341561049257600080fd5b61049a610b0a565b6040518080602001828103825283818151815260200191508051906020019080838360005b838110156104da5780820151818401526020810190506104bf565b50505050905090810190601f1680156105075780820380516001836020036101000a031916815260200191505b509250505060405180910390f35b341561052057600080fd5b610528610ba8565b005b341561053557600080fd5b610561600480803573ffffffffffffffffffffffffffffffffffffffff16906020019091905050610c0b565b604051808215151515815260200191505060405180910390f35b341561058657600080fd5b61058e610cd6565b6040518082600281111561059e57fe5b60ff16815260200191505060405180910390f35b34156105bd57600080fd5b6105c5610ce9565b6040518082815260200191505060405180910390f35b34156105e657600080fd5b610655600480803573ffffffffffffffffffffffffffffffffffffffff1690602001909190803590602001908201803590602001908080601f01602080910402602001604051908101604052809392919081815260200183838082843782019150505050505091905050610cf6565b6040518082815260200191505060405180910390f35b6106736113b5565b61067c82610c0b565b151561068757600080fd5b600560008373ffffffffffffffffffffffffffffffffffffffff1673ffffffffffffffffffffffffffffffffffffffff1681526020019081526020016000206001018054600181600116156101000203166002900480601f01602080910402602001604051908101604052809291908181526020018280546001816001161561010002031660029004801561075d5780601f106107325761010080835404028352916020019161075d565b820191906000526020600020905b81548152906001019060200180831161074057829003601f168201915b50505050509050919050565b6001600260006101000a81548160ff0219169083600281111561078857fe5b02179055506107cb6040805190810160405280600c81526020017f4f70656e526567697374727900000000000000000000000000000000000000008152506110f3565b565b60006107d882610915565b15156107e357600080fd5b6004826040518082805190602001908083835b60208310151561081b57805182526020820191506020810190506020830392506107f6565b6001836020036101000a038019825116818451168082178552505050505050905001915050908152602001604051809103902060000160009054906101000a900473ffffffffffffffffffffffffffffffffffffffff169050919050565b60038181548110151561088857fe5b90600052602060002090600302016000915090508060000160009054906101000a900473ffffffffffffffffffffffffffffffffffffffff169080600101908060020154905083565b60006008828154811015156108e257fe5b906000526020600020900160009054906101000a900473ffffffffffffffffffffffffffffffffffffffff169050919050565b600061091f6113b5565b600060098054905014156109365760009150610a66565b60096004846040518082805190602001908083835b602083101515610970578051825260208201915060208101905060208303925061094b565b6001836020036101000a0380198251168184511680821785525050505050509050019150509081526020016040518091039020600201548154811015156109b357fe5b90600052602060002090018054600181600116156101000203166002900480601f016020809104026020016040519081016040528092919081815260200182805460018160011615610100020316600290048015610a525780601f10610a2757610100808354040283529160200191610a52565b820191906000526020600020905b815481529060010190602001808311610a3557829003601f168201915b50505050509050610a6381846112dc565b91505b50919050565b60068054600181600116156101000203166002900480601f016020809104026020016040519081016040528092919081815260200182805460018160011615610100020316600290048015610b025780601f10610ad757610100808354040283529160200191610b02565b820191906000526020600020905b815481529060010190602001808311610ae557829003601f168201915b505050505081565b60078054600181600116156101000203166002900480601f016020809104026020016040519081016040528092919081815260200182805460018160011615610100020316600290048015610ba05780601f10610b7557610100808354040283529160200191610ba0565b820191906000526020600020905b815481529060010190602001808311610b8357829003601f168201915b505050505081565b60028060006101000a81548160ff02191690836002811115610bc657fe5b0217905550610c096040805190810160405280600d81526020017f436c6f73655265676973747279000000000000000000000000000000000000008152506110f3565b565b6000806008805490501415610c235760009050610cd1565b8173ffffffffffffffffffffffffffffffffffffffff166008600560008573ffffffffffffffffffffffffffffffffffffffff1673ffffffffffffffffffffffffffffffffffffffff16815260200190815260200160002060020154815481101515610c8b57fe5b906000526020600020900160009054906101000a900473ffffffffffffffffffffffffffffffffffffffff1673ffffffffffffffffffffffffffffffffffffffff161490505b919050565b600260009054906101000a900460ff1681565b6000600880549050905090565b600060016002811115610d0557fe5b600260009054906101000a900460ff166002811115610d2057fe5b141515610d2c57600080fd5b610d3583610c0b565b151515610d4157600080fd5b82600560008573ffffffffffffffffffffffffffffffffffffffff1673ffffffffffffffffffffffffffffffffffffffff16815260200190815260200160002060000160006101000a81548173ffffffffffffffffffffffffffffffffffffffff021916908373ffffffffffffffffffffffffffffffffffffffff16021790555081600560008573ffffffffffffffffffffffffffffffffffffffff1673ffffffffffffffffffffffffffffffffffffffff1681526020019081526020016000206001019080519060200190610e189291906113c9565b50600160088054806001018281610e2f9190611449565b9160005260206000209001600086909190916101000a81548173ffffffffffffffffffffffffffffffffffffffff021916908373ffffffffffffffffffffffffffffffffffffffff16021790555003600560008573ffffffffffffffffffffffffffffffffffffffff1673ffffffffffffffffffffffffffffffffffffffff16815260200190815260200160002060020181905550826004836040518082805190602001908083835b602083101515610efd5780518252602082019150602081019050602083039250610ed8565b6001836020036101000a038019825116818451168082178552505050505050905001915050908152602001604051809103902060000160006101000a81548173ffffffffffffffffffffffffffffffffffffffff021916908373ffffffffffffffffffffffffffffffffffffffff160217905550816004836040518082805190602001908083835b602083101515610faa5780518252602082019150602081019050602083039250610f85565b6001836020036101000a03801982511681845116808217855250505050505090500191505090815260200160405180910390206001019080519060200190610ff39291906113c9565b5060016009805480600101828161100a9190611475565b9160005260206000209001600085909190915090805190602001906110309291906113c9565b50036004836040518082805190602001908083835b60208310151561106a5780518252602082019150602081019050602083039250611045565b6001836020036101000a0380198251168184511680821785525050505050509050019150509081526020016040518091039020600201819055506110e26040805190810160405280600c81526020017f52656769737465724974656d00000000000000000000000000000000000000008152506110f3565b600160088054905003905092915050565b7fa13bd79f323c399d36191e886ded389c940ccd7e6dd744d1505943592fb2b433600060018333604051808060200180602001806020018573ffffffffffffffffffffffffffffffffffffffff1673ffffffffffffffffffffffffffffffffffffffff1681526020018481038452888181546001816001161561010002031660029004815260200191508054600181600116156101000203166002900480156111dd5780601f106111b2576101008083540402835291602001916111dd565b820191906000526020600020905b8154815290600101906020018083116111c057829003601f168201915b50508481038352878181546001816001161561010002031660029004815260200191508054600181600116156101000203166002900480156112605780601f1061123557610100808354040283529160200191611260565b820191906000526020600020905b81548152906001019060200180831161124357829003601f168201915b5050848103825286818151815260200191508051906020019080838360005b8381101561129a57808201518184015260208101905061127f565b50505050905090810190601f1680156112c75780820380516001836020036101000a031916815260200191505b5097505050505050505060405180910390a150565b6000816040518082805190602001908083835b60208310151561131457805182526020820191506020810190506020830392506112ef565b6001836020036101000a038019825116818451168082178552505050505050905001915050604051809103902060001916836040518082805190602001908083835b60208310151561137b5780518252602082019150602081019050602083039250611356565b6001836020036101000a03801982511681845116808217855250505050505090500191505060405180910390206000191614905092915050565b602060405190810160405280600081525090565b828054600181600116156101000203166002900490600052602060002090601f016020900481019282601f1061140a57805160ff1916838001178555611438565b82800160010185558215611438579182015b8281111561143757825182559160200191906001019061141c565b5b50905061144591906114a1565b5090565b8154818355818115116114705781836000526020600020918201910161146f91906114a1565b5b505050565b81548183558181151161149c5781836000526020600020918201910161149b91906114c6565b5b505050565b6114c391905b808211156114bf5760008160009055506001016114a7565b5090565b90565b6114ef91905b808211156114eb57600081816114e291906114f2565b506001016114cc565b5090565b90565b50805460018160011615610100020316600290046000825580601f106115185750611537565b601f01602090049060005260206000209081019061153691906114a1565b5b50565b7f5164ff06e10737dceb282871701b28082988339e79ba9d49c6c9b0e00312982b60006001336040518080602001806020018473ffffffffffffffffffffffffffffffffffffffff1673ffffffffffffffffffffffffffffffffffffffff16815260200183810383528681815460018160011615610100020316600290048152602001915080546001816001161561010002031660029004801561161f5780601f106115f45761010080835404028352916020019161161f565b820191906000526020600020905b81548152906001019060200180831161160257829003601f168201915b50508381038252858181546001816001161561010002031660029004815260200191508054600181600116156101000203166002900480156116a25780601f10611677576101008083540402835291602001916116a2565b820191906000526020600020905b81548152906001019060200180831161168557829003601f168201915b50509550505050505060405180910390a15600a165627a7a72305820ca234d3fe15c6f8f01e50803700bf59d44998dc84e8fe48e5bdeb34705566ceb0029",
  "source": "pragma solidity ^0.4.20;\r\n\r\nimport \"./lib/WorkbenchBase.sol\";\r\n\r\n// contains string support functions\r\nimport \"./lib/String.sol\";\r\n\r\ncontract BasicItemRegistry is WorkbenchBase(\"BasicItemRegistry\", \"ItemRegistry\") {\r\n    enum StateType { Created, Open, Closed}\r\n\r\n    StateType public State;\r\n    ItemStruct[] public Items;\r\n\r\n    mapping(string => ItemStruct) private ItemIdLookup;\r\n    mapping(address => ItemStruct) private ItemContractAddressLookup;\r\n\r\n    string public Name;\r\n    string public Description;\r\n\r\n    struct ItemStruct { \r\n        address ItemContractAddress;\r\n        string ItemId; \r\n        uint Index;\r\n    }\r\n\r\n    address[] private itemAddressIndex;\r\n    string[] private ItemIdIndex;\r\n\r\n    event LogNewItem   (address indexed ItemContractAddress, uint index, bytes32 Item);\r\n    event LogUpdateItem(address indexed ItemContractAddress, uint index, bytes32 ItemId);\r\n\r\n    function BasicItemRegistry(string name, string description) public {\r\n        Name = name;\r\n        Description = description;\r\n        State = StateType.Created;\r\n        ContractCreated();\r\n    }\r\n\r\n    function OpenRegistry() public {\r\n        State = StateType.Open;        \r\n        ContractUpdated(\"OpenRegistry\");\r\n    }\r\n\r\n    function CloseRegistry() public {\r\n        State = StateType.Closed;\r\n        ContractUpdated(\"CloseRegistry\");\r\n    }\r\n\r\n    //Lookup to see if a contract address for a item contract is already registered\r\n    function IsRegisteredItemContractAddress(address ItemContractAddress)\r\n    public \r\n    view\r\n    returns(bool isRegistered) \r\n    {\r\n        if(itemAddressIndex.length == 0) return false;\r\n        return (itemAddressIndex[ItemContractAddressLookup[ItemContractAddress].Index] == ItemContractAddress);\r\n    }\r\n\r\n    //Look up to see if this item reg is registered\r\n    function IsRegisteredItemId(string ItemId)\r\n    public \r\n    view\r\n    returns(bool isRegistered) \r\n    {\r\n        if(ItemIdIndex.length == 0) return false;\r\n\r\n        string memory ItemIdInternalString = ItemIdIndex[ItemIdLookup[ItemId].Index] ;\r\n        return (String.compareStrings(ItemIdInternalString, ItemId));\r\n    }\r\n\r\n    function RegisterItem(\r\n        address ItemContractAddress, \r\n        string ItemId \r\n    ) \r\n    public\r\n    returns(uint index)\r\n    {\r\n        require(State == StateType.Open);\r\n        require(!IsRegisteredItemContractAddress(ItemContractAddress));\r\n\r\n        //Add lookup by address\r\n        ItemContractAddressLookup[ItemContractAddress].ItemContractAddress = ItemContractAddress;\r\n\r\n        ItemContractAddressLookup[ItemContractAddress].ItemId = ItemId;\r\n        ItemContractAddressLookup[ItemContractAddress].Index = itemAddressIndex.push(ItemContractAddress) - 1;\r\n\r\n        //Add look up by reg number\r\n        //string ItemIdString = String.bytes32ToString(ItemId);\r\n        ItemIdLookup[ItemId].ItemContractAddress = ItemContractAddress;\r\n\r\n        ItemIdLookup[ItemId].ItemId = ItemId;\r\n        ItemIdLookup[ItemId].Index = ItemIdIndex.push(ItemId) - 1;\r\n\r\n        ContractUpdated(\"RegisterItem\");\r\n        return itemAddressIndex.length - 1;\r\n    }\r\n\r\n    function GetItemByAddress(address ItemContractAddress)\r\n    public \r\n    view\r\n    returns(string ItemId)\r\n    {\r\n        require(IsRegisteredItemContractAddress(ItemContractAddress));\r\n        return ItemContractAddressLookup[ItemContractAddress].ItemId;\r\n    } \r\n\r\n    function GetItemByItemId(string ItemId)\r\n    public \r\n    view\r\n    returns(address ItemContractAddress)\r\n    {\r\n        require(IsRegisteredItemId(ItemId));\r\n        return  ItemIdLookup[ItemId].ItemContractAddress;\r\n    } \r\n\r\n    function GetNumberOfRegisteredItems() \r\n    public\r\n    view\r\n    returns(uint count)\r\n    {\r\n        return itemAddressIndex.length;\r\n    }\r\n\r\n    function GetItemAtIndex(uint index)\r\n    public\r\n    view\r\n    returns(address ItemContractAddress)\r\n    {\r\n        return itemAddressIndex[index];\r\n    }\r\n\r\n}\r\n\r\n",
  "sourcePath": "C:\\Users\\tireilly\\GitHub\\devop-blockchain\\blockchain-devops-demo\\contracts\\BasicItemRegistry.sol",
  "compiler": {
    "name": "solc",
    "version": "0.4.20+commit.3155dd80.Emscripten.clang"
  },
  "schemaVersion": "3.0.0-beta.2",
  "updatedAt": "2019-02-13T23:55:22.569Z",
  "devdoc": {
    "methods": {}
  },
  "userdoc": {
    "methods": {}
  }
}