{
  "contractName": "Demo2",
  "abi": [
    {
      "constant": false,
      "inputs": [],
      "name": "addOne",
      "outputs": [],
      "payable": false,
      "stateMutability": "nonpayable",
      "type": "function",
      "signature": "0x6057d3ee"
    },
    {
      "constant": false,
      "inputs": [
        {
          "name": "num",
          "type": "uint256"
        }
      ],
      "name": "add",
      "outputs": [],
      "payable": false,
      "stateMutability": "nonpayable",
      "type": "function",
      "signature": "0x1003e2d2"
    },
    {
      "constant": false,
      "inputs": [],
      "name": "setZero",
      "outputs": [],
      "payable": false,
      "stateMutability": "nonpayable",
      "type": "function",
      "signature": "0xf9f0fe77"
    },
    {
      "constant": true,
      "inputs": [],
      "name": "getI",
      "outputs": [
        {
          "name": "",
          "type": "uint256"
        }
      ],
      "payable": false,
      "stateMutability": "view",
      "type": "function",
      "signature": "0x9e2fb7e2"
    }
  ],
  "bytecode": "0x606060405260008055341561001357600080fd5b610126806100226000396000f300606060405260043610605d576000357c0100000000000000000000000000000000000000000000000000000000900463ffffffff1680631003e2d21460625780636057d3ee1460825780639e2fb7e2146094578063f9f0fe771460ba575b600080fd5b3415606c57600080fd5b6080600480803590602001909190505060cc565b005b3415608c57600080fd5b609260da565b005b3415609e57600080fd5b60a460e8565b6040518082815260200191505060405180910390f35b341560c457600080fd5b60ca60f1565b005b806000540160008190555050565b600160005401600081905550565b60008054905090565b600080819055505600a165627a7a72305820093e2f36c6868ce815701a4f530235223e2bdeee6503016d843bc4f6f5d3dcd40029",
  "source": "pragma solidity ^0.4.15; \r\n\r\ncontract Demo2 { \r\n    uint i = 0; \r\n\r\n    function addOne() public {\r\n        i = i + 1; \r\n    }\r\n\r\n    function add(uint num) public{ \r\n        i = i + num; \r\n    }\r\n\r\n    function setZero() public {\r\n        i = 0; \r\n    }\r\n\r\n    function getI() public view returns(uint) {\r\n        return i; \r\n    }\r\n}",
  "sourcePath": "C:/Users/tireilly/GitHub/devop-blockchain/blockchain-devops-demo/contracts/Demo2.sol",
  "compiler": {
    "name": "solc",
    "version": "0.4.20+commit.3155dd80.Emscripten.clang"
  },
  "schemaVersion": "3.0.0-beta.2",
  "updatedAt": "2019-02-14T23:55:03.882Z",
  "devdoc": {
    "methods": {}
  },
  "userdoc": {
    "methods": {}
  }
}