{
  "contractName": "Item",
  "abi": [
    {
      "constant": true,
      "inputs": [],
      "name": "Model",
      "outputs": [
        {
          "name": "",
          "type": "string"
        }
      ],
      "payable": false,
      "stateMutability": "view",
      "type": "function",
      "signature": "0x23cd7cd5"
    },
    {
      "constant": true,
      "inputs": [],
      "name": "ItemId",
      "outputs": [
        {
          "name": "",
          "type": "string"
        }
      ],
      "payable": false,
      "stateMutability": "view",
      "type": "function",
      "signature": "0x333655db"
    },
    {
      "constant": true,
      "inputs": [],
      "name": "Make",
      "outputs": [
        {
          "name": "",
          "type": "string"
        }
      ],
      "payable": false,
      "stateMutability": "view",
      "type": "function",
      "signature": "0x50652357"
    },
    {
      "constant": true,
      "inputs": [],
      "name": "RegistryAddress",
      "outputs": [
        {
          "name": "",
          "type": "address"
        }
      ],
      "payable": false,
      "stateMutability": "view",
      "type": "function",
      "signature": "0x58620daf"
    },
    {
      "constant": true,
      "inputs": [],
      "name": "Manufacturer",
      "outputs": [
        {
          "name": "",
          "type": "address"
        }
      ],
      "payable": false,
      "stateMutability": "view",
      "type": "function",
      "signature": "0xab6db5dc"
    },
    {
      "constant": true,
      "inputs": [],
      "name": "OwnerDetailHash",
      "outputs": [
        {
          "name": "",
          "type": "string"
        }
      ],
      "payable": false,
      "stateMutability": "view",
      "type": "function",
      "signature": "0xb3000b5f"
    },
    {
      "constant": true,
      "inputs": [],
      "name": "Owner",
      "outputs": [
        {
          "name": "",
          "type": "address"
        }
      ],
      "payable": false,
      "stateMutability": "view",
      "type": "function",
      "signature": "0xb4a99a4e"
    },
    {
      "constant": true,
      "inputs": [],
      "name": "ManufactureDate",
      "outputs": [
        {
          "name": "",
          "type": "string"
        }
      ],
      "payable": false,
      "stateMutability": "view",
      "type": "function",
      "signature": "0xcd854d64"
    },
    {
      "constant": true,
      "inputs": [],
      "name": "Color",
      "outputs": [
        {
          "name": "",
          "type": "string"
        }
      ],
      "payable": false,
      "stateMutability": "view",
      "type": "function",
      "signature": "0xde5119f3"
    },
    {
      "constant": true,
      "inputs": [],
      "name": "FactoryId",
      "outputs": [
        {
          "name": "",
          "type": "string"
        }
      ],
      "payable": false,
      "stateMutability": "view",
      "type": "function",
      "signature": "0xde54bd11"
    },
    {
      "constant": true,
      "inputs": [],
      "name": "State",
      "outputs": [
        {
          "name": "",
          "type": "uint8"
        }
      ],
      "payable": false,
      "stateMutability": "view",
      "type": "function",
      "signature": "0xf1b6dccd"
    },
    {
      "inputs": [
        {
          "name": "manufacturer",
          "type": "address"
        },
        {
          "name": "itemId",
          "type": "string"
        },
        {
          "name": "make",
          "type": "string"
        },
        {
          "name": "model",
          "type": "string"
        },
        {
          "name": "color",
          "type": "string"
        },
        {
          "name": "manufactureDate",
          "type": "string"
        },
        {
          "name": "factoryId",
          "type": "string"
        }
      ],
      "payable": false,
      "stateMutability": "nonpayable",
      "type": "constructor",
      "signature": "constructor"
    },
    {
      "anonymous": false,
      "inputs": [
        {
          "indexed": false,
          "name": "applicationName",
          "type": "string"
        },
        {
          "indexed": false,
          "name": "workflowName",
          "type": "string"
        },
        {
          "indexed": false,
          "name": "originatingAddress",
          "type": "address"
        }
      ],
      "name": "WorkbenchContractCreated",
      "type": "event",
      "signature": "0x5164ff06e10737dceb282871701b28082988339e79ba9d49c6c9b0e00312982b"
    },
    {
      "anonymous": false,
      "inputs": [
        {
          "indexed": false,
          "name": "applicationName",
          "type": "string"
        },
        {
          "indexed": false,
          "name": "workflowName",
          "type": "string"
        },
        {
          "indexed": false,
          "name": "action",
          "type": "string"
        },
        {
          "indexed": false,
          "name": "originatingAddress",
          "type": "address"
        }
      ],
      "name": "WorkbenchContractUpdated",
      "type": "event",
      "signature": "0xa13bd79f323c399d36191e886ded389c940ccd7e6dd744d1505943592fb2b433"
    },
    {
      "constant": false,
      "inputs": [
        {
          "name": "registryAddress",
          "type": "address"
        }
      ],
      "name": "RegisterItem",
      "outputs": [],
      "payable": false,
      "stateMutability": "nonpayable",
      "type": "function",
      "signature": "0x31a3c1b3"
    },
    {
      "constant": false,
      "inputs": [],
      "name": "Retire",
      "outputs": [],
      "payable": false,
      "stateMutability": "nonpayable",
      "type": "function",
      "signature": "0xbe63c8ca"
    }
  ],
  "bytecode": "0x606060405234156200001057600080fd5b604051620016bd380380620016bd833981016040528080519060200190919080518201919060200180518201919060200180518201919060200180518201919060200180518201919060200180518201919050506040805190810160405280601181526020017f42617369634974656d52656769737472790000000000000000000000000000008152506040805190810160405280600481526020017f4974656d000000000000000000000000000000000000000000000000000000008152508160009080519060200190620000e8929190620003ae565b50806001908051906020019062000101929190620003ae565b50505086600460006101000a81548173ffffffffffffffffffffffffffffffffffffffff021916908373ffffffffffffffffffffffffffffffffffffffff16021790555085600590805190602001906200015d929190620003ae565b50846008908051906020019062000176929190620003ae565b5083600990805190602001906200018f929190620003ae565b5081600b9080519060200190620001a8929190620003ae565b5080600c9080519060200190620001c1929190620003ae565b5082600a9080519060200190620001da929190620003ae565b506000600360146101000a81548160ff02191690836001811115620001fb57fe5b02179055506200021e6200022b64010000000002620010a9176401000000009004565b505050505050506200045d565b7f5164ff06e10737dceb282871701b28082988339e79ba9d49c6c9b0e00312982b60006001336040518080602001806020018473ffffffffffffffffffffffffffffffffffffffff1673ffffffffffffffffffffffffffffffffffffffff168152602001838103835286818154600181600116156101000203166002900481526020019150805460018160011615610100020316600290048015620003145780601f10620002e85761010080835404028352916020019162000314565b820191906000526020600020905b815481529060010190602001808311620002f657829003601f168201915b50508381038252858181546001816001161561010002031660029004815260200191508054600181600116156101000203166002900480156200039b5780601f106200036f576101008083540402835291602001916200039b565b820191906000526020600020905b8154815290600101906020018083116200037d57829003601f168201915b50509550505050505060405180910390a1565b828054600181600116156101000203166002900490600052602060002090601f016020900481019282601f10620003f157805160ff191683800117855562000422565b8280016001018555821562000422579182015b828111156200042157825182559160200191906001019062000404565b5b50905062000431919062000435565b5090565b6200045a91905b80821115620004565760008160009055506001016200043c565b5090565b90565b611250806200046d6000396000f3006060604052600436106100c5576000357c0100000000000000000000000000000000000000000000000000000000900463ffffffff16806323cd7cd5146100ca57806331a3c1b314610158578063333655db14610191578063506523571461021f57806358620daf146102ad578063ab6db5dc14610302578063b3000b5f14610357578063b4a99a4e146103e5578063be63c8ca1461043a578063cd854d641461044f578063de5119f3146104dd578063de54bd111461056b578063f1b6dccd146105f9575b600080fd5b34156100d557600080fd5b6100dd610630565b6040518080602001828103825283818151815260200191508051906020019080838360005b8381101561011d578082015181840152602081019050610102565b50505050905090810190601f16801561014a5780820380516001836020036101000a031916815260200191505b509250505060405180910390f35b341561016357600080fd5b61018f600480803573ffffffffffffffffffffffffffffffffffffffff169060200190919050506106ce565b005b341561019c57600080fd5b6101a4610a23565b6040518080602001828103825283818151815260200191508051906020019080838360005b838110156101e45780820151818401526020810190506101c9565b50505050905090810190601f1680156102115780820380516001836020036101000a031916815260200191505b509250505060405180910390f35b341561022a57600080fd5b610232610ac1565b6040518080602001828103825283818151815260200191508051906020019080838360005b83811015610272578082015181840152602081019050610257565b50505050905090810190601f16801561029f5780820380516001836020036101000a031916815260200191505b509250505060405180910390f35b34156102b857600080fd5b6102c0610b5f565b604051808273ffffffffffffffffffffffffffffffffffffffff1673ffffffffffffffffffffffffffffffffffffffff16815260200191505060405180910390f35b341561030d57600080fd5b610315610b85565b604051808273ffffffffffffffffffffffffffffffffffffffff1673ffffffffffffffffffffffffffffffffffffffff16815260200191505060405180910390f35b341561036257600080fd5b61036a610bab565b6040518080602001828103825283818151815260200191508051906020019080838360005b838110156103aa57808201518184015260208101905061038f565b50505050905090810190601f1680156103d75780820380516001836020036101000a031916815260200191505b509250505060405180910390f35b34156103f057600080fd5b6103f8610c49565b604051808273ffffffffffffffffffffffffffffffffffffffff1673ffffffffffffffffffffffffffffffffffffffff16815260200191505060405180910390f35b341561044557600080fd5b61044d610c6f565b005b341561045a57600080fd5b610462610cd3565b6040518080602001828103825283818151815260200191508051906020019080838360005b838110156104a2578082015181840152602081019050610487565b50505050905090810190601f1680156104cf5780820380516001836020036101000a031916815260200191505b509250505060405180910390f35b34156104e857600080fd5b6104f0610d71565b6040518080602001828103825283818151815260200191508051906020019080838360005b83811015610530578082015181840152602081019050610515565b50505050905090810190601f16801561055d5780820380516001836020036101000a031916815260200191505b509250505060405180910390f35b341561057657600080fd5b61057e610e0f565b6040518080602001828103825283818151815260200191508051906020019080838360005b838110156105be5780820151818401526020810190506105a3565b50505050905090810190601f1680156105eb5780820380516001836020036101000a031916815260200191505b509250505060405180910390f35b341561060457600080fd5b61060c610ead565b6040518082600181111561061c57fe5b60ff16815260200191505060405180910390f35b60098054600181600116156101000203166002900480601f0160208091040260200160405190810160405280929190818152602001828054600181600116156101000203166002900480156106c65780601f1061069b576101008083540402835291602001916106c6565b820191906000526020600020905b8154815290600101906020018083116106a957829003601f168201915b505050505081565b6000600360009054906101000a900473ffffffffffffffffffffffffffffffffffffffff1673ffffffffffffffffffffffffffffffffffffffff1614151561071557600080fd5b6000600181111561072257fe5b600360149054906101000a900460ff16600181111561073d57fe5b14151561074957600080fd5b80600260006101000a81548173ffffffffffffffffffffffffffffffffffffffff021916908373ffffffffffffffffffffffffffffffffffffffff160217905550600260009054906101000a900473ffffffffffffffffffffffffffffffffffffffff1673ffffffffffffffffffffffffffffffffffffffff1663847fba5b306000604051602001526040518263ffffffff167c0100000000000000000000000000000000000000000000000000000000028152600401808273ffffffffffffffffffffffffffffffffffffffff1673ffffffffffffffffffffffffffffffffffffffff168152602001915050602060405180830381600087803b151561084f57600080fd5b6102c65a03f1151561086057600080fd5b5050506040518051905015151561087657600080fd5b600260009054906101000a900473ffffffffffffffffffffffffffffffffffffffff1673ffffffffffffffffffffffffffffffffffffffff1663f3978f6a3060056000604051602001526040518363ffffffff167c0100000000000000000000000000000000000000000000000000000000028152600401808373ffffffffffffffffffffffffffffffffffffffff1673ffffffffffffffffffffffffffffffffffffffff168152602001806020018281038252838181546001816001161561010002031660029004815260200191508054600181600116156101000203166002900480156109a65780601f1061097b576101008083540402835291602001916109a6565b820191906000526020600020905b81548152906001019060200180831161098957829003601f168201915b50509350505050602060405180830381600087803b15156109c657600080fd5b6102c65a03f115156109d757600080fd5b5050506040518051905050610a206040805190810160405280600c81526020017f52656769737465724974656d0000000000000000000000000000000000000000815250610ec0565b50565b60058054600181600116156101000203166002900480601f016020809104026020016040519081016040528092919081815260200182805460018160011615610100020316600290048015610ab95780601f10610a8e57610100808354040283529160200191610ab9565b820191906000526020600020905b815481529060010190602001808311610a9c57829003601f168201915b505050505081565b60088054600181600116156101000203166002900480601f016020809104026020016040519081016040528092919081815260200182805460018160011615610100020316600290048015610b575780601f10610b2c57610100808354040283529160200191610b57565b820191906000526020600020905b815481529060010190602001808311610b3a57829003601f168201915b505050505081565b600360009054906101000a900473ffffffffffffffffffffffffffffffffffffffff1681565b600460009054906101000a900473ffffffffffffffffffffffffffffffffffffffff1681565b60078054600181600116156101000203166002900480601f016020809104026020016040519081016040528092919081815260200182805460018160011615610100020316600290048015610c415780601f10610c1657610100808354040283529160200191610c41565b820191906000526020600020905b815481529060010190602001808311610c2457829003601f168201915b505050505081565b600660009054906101000a900473ffffffffffffffffffffffffffffffffffffffff1681565b6001600360146101000a81548160ff02191690836001811115610c8e57fe5b0217905550610cd16040805190810160405280600681526020017f5265746972650000000000000000000000000000000000000000000000000000815250610ec0565b565b600b8054600181600116156101000203166002900480601f016020809104026020016040519081016040528092919081815260200182805460018160011615610100020316600290048015610d695780601f10610d3e57610100808354040283529160200191610d69565b820191906000526020600020905b815481529060010190602001808311610d4c57829003601f168201915b505050505081565b600a8054600181600116156101000203166002900480601f016020809104026020016040519081016040528092919081815260200182805460018160011615610100020316600290048015610e075780601f10610ddc57610100808354040283529160200191610e07565b820191906000526020600020905b815481529060010190602001808311610dea57829003601f168201915b505050505081565b600c8054600181600116156101000203166002900480601f016020809104026020016040519081016040528092919081815260200182805460018160011615610100020316600290048015610ea55780601f10610e7a57610100808354040283529160200191610ea5565b820191906000526020600020905b815481529060010190602001808311610e8857829003601f168201915b505050505081565b600360149054906101000a900460ff1681565b7fa13bd79f323c399d36191e886ded389c940ccd7e6dd744d1505943592fb2b433600060018333604051808060200180602001806020018573ffffffffffffffffffffffffffffffffffffffff1673ffffffffffffffffffffffffffffffffffffffff168152602001848103845288818154600181600116156101000203166002900481526020019150805460018160011615610100020316600290048015610faa5780601f10610f7f57610100808354040283529160200191610faa565b820191906000526020600020905b815481529060010190602001808311610f8d57829003601f168201915b505084810383528781815460018160011615610100020316600290048152602001915080546001816001161561010002031660029004801561102d5780601f106110025761010080835404028352916020019161102d565b820191906000526020600020905b81548152906001019060200180831161101057829003601f168201915b5050848103825286818151815260200191508051906020019080838360005b8381101561106757808201518184015260208101905061104c565b50505050905090810190601f1680156110945780820380516001836020036101000a031916815260200191505b5097505050505050505060405180910390a150565b7f5164ff06e10737dceb282871701b28082988339e79ba9d49c6c9b0e00312982b60006001336040518080602001806020018473ffffffffffffffffffffffffffffffffffffffff1673ffffffffffffffffffffffffffffffffffffffff16815260200183810383528681815460018160011615610100020316600290048152602001915080546001816001161561010002031660029004801561118e5780601f106111635761010080835404028352916020019161118e565b820191906000526020600020905b81548152906001019060200180831161117157829003601f168201915b50508381038252858181546001816001161561010002031660029004815260200191508054600181600116156101000203166002900480156112115780601f106111e657610100808354040283529160200191611211565b820191906000526020600020905b8154815290600101906020018083116111f457829003601f168201915b50509550505050505060405180910390a15600a165627a7a72305820c9a712866690740f62925fa92fb9736cd5f35e49a239c838c6e7584de94a84cb0029",
  "source": "pragma solidity ^0.4.20;\r\n\r\nimport \"./lib/WorkbenchBase.sol\";\r\n\r\n// contains string support functions\r\nimport \"./lib/String.sol\";\r\n\r\nimport \"./BasicItemRegistry.sol\";\r\n\r\ncontract Item is WorkbenchBase(\"BasicItemRegistry\", \"Item\") {\r\n\r\n  // Registry\r\n  BasicItemRegistry MyItemRegistry;\r\n  address public RegistryAddress;\r\n\r\n  //Item Proeprties\r\n  //Set of States\r\n  enum StateType {Active, Retired}\r\n  StateType public  State;\r\n  address public Manufacturer; // manufacturer of the Item\r\n  string public ItemId; //identifier for the Item, stored off chain\r\n  address public Owner; //identifier for the Owner of the Item, stored off chain\r\n  string public OwnerDetailHash; //hash of the owner details for the Item, stored off chain\r\n  string public Make; // text here, but could be an Id\r\n  string public Model; // text here, but coudl be an Id\r\n  string public Color; // text, represents the color of the Item\r\n  string public ManufactureDate; // epoch time\r\n  string public FactoryId; // Reflects an off chain identifier for a Factory;\r\n\r\n  function Item (address manufacturer, string itemId, string make, string model, string color, string manufactureDate, string factoryId) public {\r\n    Manufacturer = manufacturer;   \r\n    ItemId = itemId;\r\n    Make = make;\r\n    Model = model;\r\n    ManufactureDate = manufactureDate;\r\n    FactoryId = factoryId;\r\n    Color = color;\r\n\r\n    //NOTE - Don't hardcode registry address, even if registry previously deployed to the chain, as this would break tests\r\n    State = StateType.Active;\r\n    ContractCreated();\r\n  }\r\n\r\n  function RegisterItem(address registryAddress) public {\r\n\r\n    // only assign if there isn't one assigned already\r\n    require(RegistryAddress == 0x0);\r\n    require(State == StateType.Active);\r\n\r\n    MyItemRegistry = BasicItemRegistry(registryAddress);\r\n\r\n    //Check to see if the item is already registered and \r\n    //also check to see if this item can have its ownership transferred\r\n    require(!MyItemRegistry.IsRegisteredItemContractAddress(address(this)));\r\n\r\n    MyItemRegistry.RegisterItem(address(this), ItemId);\r\n    ContractUpdated(\"RegisterItem\");\r\n  }\r\n\r\n  function Retire() public {\r\n    State = StateType.Retired;\r\n    ContractUpdated(\"Retire\");\r\n  }\r\n}\r\n",
  "sourcePath": "C:/Users/tireilly/GitHub/devop-blockchain/blockchain-devops-demo/contracts/Item.sol",
  "compiler": {
    "name": "solc",
    "version": "0.4.20+commit.3155dd80.Emscripten.clang"
  },
  "schemaVersion": "3.0.0-beta.2",
  "updatedAt": "2019-02-15T18:08:19.345Z",
  "devdoc": {
    "methods": {}
  },
  "userdoc": {
    "methods": {}
  }
}