{
  "contractName": "myPostBox",
  "abi": [
    {
      "anonymous": false,
      "inputs": [
        {
          "indexed": false,
          "name": "message",
          "type": "string"
        }
      ],
      "name": "Posted",
      "type": "event"
    },
    {
      "constant": false,
      "inputs": [
        {
          "name": "text",
          "type": "string"
        }
      ],
      "name": "postMsg",
      "outputs": [],
      "payable": false,
      "stateMutability": "nonpayable",
      "type": "function"
    },
    {
      "constant": true,
      "inputs": [],
      "name": "getMsg",
      "outputs": [
        {
          "name": "",
          "type": "string"
        }
      ],
      "payable": false,
      "stateMutability": "view",
      "type": "function"
    },
    {
      "constant": true,
      "inputs": [],
      "name": "getCount",
      "outputs": [
        {
          "name": "",
          "type": "int64"
        }
      ],
      "payable": false,
      "stateMutability": "view",
      "type": "function"
    }
  ],
  "bytecode": "0x6060604052341561000f57600080fd5b6104138061001e6000396000f300606060405260043610610057576000357c0100000000000000000000000000000000000000000000000000000000900463ffffffff168063a87d942c1461005c578063b0fa10181461008b578063b5fdeb23146100e8575b600080fd5b341561006757600080fd5b61006f610176565b604051808260070b60070b815260200191505060405180910390f35b341561009657600080fd5b6100e6600480803590602001908201803590602001908080601f0160208091040260200160405190810160405280939291908181526020018383808284378201915050505050509190505061018d565b005b34156100f357600080fd5b6100fb610286565b6040518080602001828103825283818151815260200191508051906020019080838360005b8381101561013b578082015181840152602081019050610120565b50505050905090810190601f1680156101685780820380516001836020036101000a031916815260200191505b509250505060405180910390f35b6000600160009054906101000a900460070b905090565b7fcb29a472e67a29d4852265025550639832cc94eea5ccdc2af621a54a92694fe8816040518080602001828103825283818151815260200191508051906020019080838360005b838110156101ef5780820151818401526020810190506101d4565b50505050905090810190601f16801561021c5780820380516001836020036101000a031916815260200191505b509250505060405180910390a16001600081819054906101000a900460070b8092919060010191906101000a81548167ffffffffffffffff021916908360070b67ffffffffffffffff16021790555050806000908051906020019061028292919061032e565b5050565b61028e6103ae565b60008054600181600116156101000203166002900480601f0160208091040260200160405190810160405280929190818152602001828054600181600116156101000203166002900480156103245780601f106102f957610100808354040283529160200191610324565b820191906000526020600020905b81548152906001019060200180831161030757829003601f168201915b5050505050905090565b828054600181600116156101000203166002900490600052602060002090601f016020900481019282601f1061036f57805160ff191683800117855561039d565b8280016001018555821561039d579182015b8281111561039c578251825591602001919060010190610381565b5b5090506103aa91906103c2565b5090565b602060405190810160405280600081525090565b6103e491905b808211156103e05760008160009055506001016103c8565b5090565b905600a165627a7a72305820af5ae7025cc2b773c3f22a5de930b8357f3a80d2b0016be0e13f918508c2416e0029",
  "source": "pragma solidity ^0.4.20; \r\n\r\ncontract myPostBox {\r\n    string message; \r\n    int64 count; \r\n    event Posted(string message); \r\n\r\n    function postMsg(string text) public {\r\n        Posted (text); \r\n        count++;\r\n        message = text;  \r\n    }\r\n\r\n    function getMsg() public view returns(string) {\r\n        return message; \r\n    }\r\n    function getCount() public view returns(int64) {\r\n        return count; \r\n    }\r\n}",
  "sourcePath": "C:/Users/tireilly/GitHub/devop-blockchain/blockchain-devops-demo/contracts/PostMsg.sol",
  "compiler": {
    "name": "solc",
    "version": "0.4.20+commit.3155dd80.Emscripten.clang"
  },
  "schemaVersion": "3.0.0-beta.2",
  "updatedAt": "2019-02-14T22:52:31.124Z",
  "devdoc": {
    "methods": {}
  },
  "userdoc": {
    "methods": {}
  }
}