{
  "contractName": "SimpleStorage",
  "abi": [
    {
      "constant": true,
      "inputs": [],
      "name": "storedData",
      "outputs": [
        {
          "name": "",
          "type": "uint256"
        }
      ],
      "payable": false,
      "stateMutability": "view",
      "type": "function"
    },
    {
      "anonymous": false,
      "inputs": [
        {
          "indexed": false,
          "name": "_message",
          "type": "string"
        }
      ],
      "name": "StorageSet",
      "type": "event"
    },
    {
      "constant": false,
      "inputs": [
        {
          "name": "x",
          "type": "uint256"
        }
      ],
      "name": "set",
      "outputs": [],
      "payable": false,
      "stateMutability": "nonpayable",
      "type": "function"
    }
  ],
  "bytecode": "0x6060604052341561000f57600080fd5b6101418061001e6000396000f30060606040526004361061004c576000357c0100000000000000000000000000000000000000000000000000000000900463ffffffff1680632a1afcd91461005157806360fe47b11461007a575b600080fd5b341561005c57600080fd5b61006461009d565b6040518082815260200191505060405180910390f35b341561008557600080fd5b61009b60048080359060200190919050506100a3565b005b60005481565b806000819055507f60cdc157ca4737a5d39a0e107532616e7bf6946e615228812c7f9bc9f81797a66040518080602001828103825260198152602001807f446174612073746f726564207375636365737366756c6c79210000000000000081525060200191505060405180910390a1505600a165627a7a72305820e704ca9563b266e2ae91a817105e056d6cb9b6bf132e26a100d66f9fc40967a50029",
  "source": "pragma solidity ^0.4.20;\r\n \r\ncontract SimpleStorage {\r\n    event StorageSet(\r\n        string _message\r\n    );\r\n\r\n    uint public storedData;\r\n\r\n    function set(uint x) public {\r\n        storedData = x;\r\n\r\n        StorageSet(\"Data stored successfully!\");\r\n    }\r\n}",
  "sourcePath": "C:/Users/tireilly/GitHub/devop-blockchain/blockchain-devops-demo/contracts/SimpleStorage.sol",
  "compiler": {
    "name": "solc",
    "version": "0.4.20+commit.3155dd80.Emscripten.clang"
  },
  "schemaVersion": "3.0.0-beta.2",
  "updatedAt": "2019-02-13T23:35:46.088Z",
  "devdoc": {
    "methods": {}
  },
  "userdoc": {
    "methods": {}
  }
}